:020000020000FC
:1000000070E000E01FEF2FE01AB91BB91DB9759A17
:1000100001B912B90E940A0100990C9414007013DE
:100020000E945F000E943C0001990C941C00721316
:100030000E945A000E944B0002990C9421000E94D9
:10004000150103990C942C00F5E00E94FF00FA952D
:10005000E1F71FEF1AB91BB905990C9431000E9402
:100060008A0006990C9436000E94970007990C9418
:1000700008000E94A400CCCF7FE00E947B000E9479
:1000800064000E94F5000E940A010E94FA001FEF1E
:100090001AB91BB9089570E00E947B000E946400A9
:1000A0000E94F5000E940A010E94FA001FEF1AB98F
:1000B0001BB9089573950E9464000C942C007A95E6
:1000C0000E9464000C94140070FD5B9870FF5B9AB2
:1000D00071FD5A9871FF5A9A72FD599872FF599A98
:1000E00073FD589873FF589A89E765E16A95F1F7AF
:1000F0008A95D9F7089592E3AFE0749A0E9474004C
:100100000000000074980E947400AA95B1F79A95B7
:1001100099F708959EE1AAE0749A0E94CB00749822
:100120000E94CB00AA95C1F79A95A9F708959EE180
:10013000AAE0749A0E94D20074980E94D200AA95F4
:10014000C1F79A95A9F708959EE1AAE0749A0E94D2
:10015000D90074980E94D900AA95C1F79A95A9F779
:1001600008959EE1AAE0749A0E94E00074980E94AB
:10017000E000AA95C1F79A95A9F708959EE1AAE033
:10018000749A0E94E70074980E94E700AA95C1F74C
:100190009A95A9F708958EE166E86A95F1F78A9530
:1001A000D9F7089587E261E66A95F1F78A95D9F75C
:1001B000089584E661E26A95F1F78A95D9F7089582
:1001C0008AE768E46A95F1F78A95D9F7089583E399
:1001D00069E06A95B9F78A95A1F7089583E369E024
:1001E0006A95F1F78A95D9F70895CAE50FEF0AB92C
:1001F000CBB90895C5EA0FEF0AB9CBB908950E94AB
:10020000F5000E94B1000E940A010E94FA000E94BB
:10021000BE000895CFEFDFEFEEE10000EA95E9F7C9
:0A022000DA95D1F7CA95B9F70895F1
:00000001FF
