:020000020000FC
:1000000070E000E01FEF2FE01AB91BB91DB9759A17
:1000100001B912B90E948B0100990C94140070135D
:100020000E945F000E943C0001990C941C00721316
:100030000E945A000E944B0002990C9421000E94D9
:10004000960103990C942C00FAE00E947E01FA9527
:10005000E1F71FEF1AB91BB905990C9431000E9402
:100060008A0006990C9436000E94F20007990C94BD
:1000700008000E94FF00CCCF7FE00E947B000E941E
:1000800064000E9474010E948B010E9479011FEF9D
:100090001AB91BB9089570E00E947B000E946400A9
:1000A0000E9474010E948B010E9479011FEF1AB90E
:1000B0001BB9089573950E9464000C942C007A95E6
:1000C0000E9464000C94140070FD5B9870FF5B9AB2
:1000D00071FD5A9871FF5A9A72FD599872FF599A98
:1000E00073FD589873FF589A89E765E16A95F1F7AF
:1000F0008A95D9F7089592E3AFE0749A0E9474004C
:100100000000000074980E947400AA95B1F79A95B7
:1001100099F708959EE1AAE0749A0E943C017498B0
:100120000E943C01AA95C1F79A95A9F708959AE013
:10013000AAE0749A0E943C0174980E943C01AA951E
:10014000C1F79A95A9F7089594E6AAE0749A0E94D7
:100150003C0174980E943C01AA95C1F79A95A9F7B1
:10016000089594E1AAE0749A0E94660174980E942E
:100170006601AA95C1F79A95A9F708959BE4AAE0AC
:10018000749A0E94660174980E946601AA95C1F74C
:100190009A95A9F7089594E1AAE0749A0E945F01E4
:1001A00074980E945F01AA95C1F79A95A9F70895DE
:1001B0009AE0AAE0749A0E946D0174980E946D0101
:1001C000AA95C1F79A95A9F7089594E6AAE0749ABA
:1001D0000E946D0174980E946D01AA95C1F79A95CD
:1001E000A9F708959EE1AAE0749A0E9443017498C9
:1001F0000E944301AA95C1F79A95A9F708959EE137
:10020000AAE0749A0E944A0174980E944A01AA9531
:10021000C1F79A95A9F708959EE1AAE0749A0E9401
:10022000510174980E945101AA95C1F79A95A9F7B6
:1002300008959EE1AAE0749A0E94580174980E9461
:100240005801AA95C1F79A95A9F70895CFEFDFEF66
:10025000EEE10000EA95E9F7DA95D1F7CA95B9F72A
:100260000895CFE0DFEFEEE10000EA95E9F7DA95D7
:10027000D1F7CA95B9F708958EE166E86A95F1F766
:100280008A95D9F7089587E261E66A95F1F78A952C
:10029000D9F7089584E661E26A95F1F78A95D9F76E
:1002A00008958AE768E46A95F1F78A95D9F7089581
:1002B00083E369E06A95F1F78A95D9F7089585EFA8
:1002C00065E16A95F1F78A95D9F708958FEF63E1B3
:1002D0006A95F1F78A95D9F708958FEE62E16A95EC
:1002E000F1F78A95D9F70895CAE50FEF0AB9CBB9A6
:1002F0000895C5EA0FEF0AB9CBB908950E947401B9
:100300000E940C010E9426010E9479010E9419019D
:100310000E9426010895CFE8DFEFEEE10000EA95A4
:10032000E9F7DA95D1F7CA95B9F708950E94B100B7
:100330000E94CB000E94BE000E9426010E94B100D4
:100340000E94CB000E94BE000E9426010E94B100C4
:100350000E94CB000E94BE000E9431010E94D80082
:100360000E9431010E94E5000E9497000E94310125
:060370000E94A4000895A4
:00000001FF
